{
  "contractName": "Curatable",
  "abi": [
    {
      "constant": false,
      "inputs": [
        {
          "name": "newCurator",
          "type": "address"
        }
      ],
      "name": "transferCurationRights",
      "outputs": [],
      "payable": false,
      "stateMutability": "nonpayable",
      "type": "function"
    },
    {
      "constant": true,
      "inputs": [],
      "name": "owner",
      "outputs": [
        {
          "name": "",
          "type": "address"
        }
      ],
      "payable": false,
      "stateMutability": "view",
      "type": "function"
    },
    {
      "constant": true,
      "inputs": [],
      "name": "curator",
      "outputs": [
        {
          "name": "",
          "type": "address"
        }
      ],
      "payable": false,
      "stateMutability": "view",
      "type": "function"
    },
    {
      "constant": false,
      "inputs": [
        {
          "name": "newOwner",
          "type": "address"
        }
      ],
      "name": "transferOwnership",
      "outputs": [],
      "payable": false,
      "stateMutability": "nonpayable",
      "type": "function"
    },
    {
      "inputs": [],
      "payable": false,
      "stateMutability": "nonpayable",
      "type": "constructor"
    },
    {
      "anonymous": false,
      "inputs": [
        {
          "indexed": true,
          "name": "previousCurator",
          "type": "address"
        },
        {
          "indexed": true,
          "name": "newCurator",
          "type": "address"
        }
      ],
      "name": "CurationRightsTransferred",
      "type": "event"
    },
    {
      "anonymous": false,
      "inputs": [
        {
          "indexed": true,
          "name": "previousOwner",
          "type": "address"
        },
        {
          "indexed": true,
          "name": "newOwner",
          "type": "address"
        }
      ],
      "name": "OwnershipTransferred",
      "type": "event"
    }
  ],
  "bytecode": "0x6060604052341561000f57600080fd5b336000806101000a81548173ffffffffffffffffffffffffffffffffffffffff021916908373ffffffffffffffffffffffffffffffffffffffff160217905550336000806101000a81548173ffffffffffffffffffffffffffffffffffffffff021916908373ffffffffffffffffffffffffffffffffffffffff1602179055506000809054906101000a900473ffffffffffffffffffffffffffffffffffffffff16600160006101000a81548173ffffffffffffffffffffffffffffffffffffffff021916908373ffffffffffffffffffffffffffffffffffffffff1602179055506104a6806101006000396000f300606060405260043610610062576000357c0100000000000000000000000000000000000000000000000000000000900463ffffffff1680630e8ca718146100675780638da5cb5b146100a0578063e66f53b7146100f5578063f2fde38b1461014a575b600080fd5b341561007257600080fd5b61009e600480803573ffffffffffffffffffffffffffffffffffffffff16906020019091905050610183565b005b34156100ab57600080fd5b6100b36102da565b604051808273ffffffffffffffffffffffffffffffffffffffff1673ffffffffffffffffffffffffffffffffffffffff16815260200191505060405180910390f35b341561010057600080fd5b6101086102ff565b604051808273ffffffffffffffffffffffffffffffffffffffff1673ffffffffffffffffffffffffffffffffffffffff16815260200191505060405180910390f35b341561015557600080fd5b610181600480803573ffffffffffffffffffffffffffffffffffffffff16906020019091905050610325565b005b6000809054906101000a900473ffffffffffffffffffffffffffffffffffffffff1673ffffffffffffffffffffffffffffffffffffffff163373ffffffffffffffffffffffffffffffffffffffff161415156101de57600080fd5b600073ffffffffffffffffffffffffffffffffffffffff168173ffffffffffffffffffffffffffffffffffffffff161415151561021a57600080fd5b8073ffffffffffffffffffffffffffffffffffffffff16600160009054906101000a900473ffffffffffffffffffffffffffffffffffffffff1673ffffffffffffffffffffffffffffffffffffffff167fa9758fcc89db640734d17c365db1788692826f95ab766ac07692cdcfa4589c1060405160405180910390a380600160006101000a81548173ffffffffffffffffffffffffffffffffffffffff021916908373ffffffffffffffffffffffffffffffffffffffff16021790555050565b6000809054906101000a900473ffffffffffffffffffffffffffffffffffffffff1681565b600160009054906101000a900473ffffffffffffffffffffffffffffffffffffffff1681565b6000809054906101000a900473ffffffffffffffffffffffffffffffffffffffff1673ffffffffffffffffffffffffffffffffffffffff163373ffffffffffffffffffffffffffffffffffffffff1614151561038057600080fd5b600073ffffffffffffffffffffffffffffffffffffffff168173ffffffffffffffffffffffffffffffffffffffff16141515156103bc57600080fd5b8073ffffffffffffffffffffffffffffffffffffffff166000809054906101000a900473ffffffffffffffffffffffffffffffffffffffff1673ffffffffffffffffffffffffffffffffffffffff167f8be0079c531659141344cd1fd0a4f28419497f9722a3daafe3b4186f6b6457e060405160405180910390a3806000806101000a81548173ffffffffffffffffffffffffffffffffffffffff021916908373ffffffffffffffffffffffffffffffffffffffff160217905550505600a165627a7a7230582040cbfadd4fa35ee8a2cc514862839c8ff704305e03e73e29141eca973b8d21380029",
  "source": "pragma solidity ^0.4.17;\r\nimport \"zeppelin-solidity/contracts/ownership/Ownable.sol\";\r\n\r\n/**\r\n * @title Curatable\r\n * @dev The Curatable contract has an curator address, and provides basic authorization control\r\n * functions, this simplifies the implementation of \"user permissions\". This is heavily based on\r\n * the Ownable contract\r\n */\r\ncontract Curatable is Ownable {\r\n  address public curator;\r\n\r\n\r\n  event CurationRightsTransferred(address indexed previousCurator, address indexed newCurator);\r\n\r\n\r\n  /**\r\n   * @dev The Curatable constructor sets the original `curator` of the contract to the sender\r\n   * account.\r\n   */\r\n  function Curatable() public {\r\n    owner = msg.sender;\r\n    curator = owner;\r\n  }\r\n\r\n\r\n  /**\r\n   * @dev Throws if called by any account other than the curator.\r\n   */\r\n  modifier onlyCurator() {\r\n    require(msg.sender == curator);\r\n    _;\r\n  }\r\n\r\n\r\n  /**\r\n   * @dev Allows the current owner to transfer control of the contract to a newOwner.\r\n   * @param newCurator The address to transfer ownership to.\r\n   */\r\n  function transferCurationRights(address newCurator) public onlyOwner {\r\n    require(newCurator != address(0));\r\n    CurationRightsTransferred(curator, newCurator);\r\n    curator = newCurator;\r\n  }\r\n\r\n}",
  "sourcePath": "C:\\Users\\MennoHamburg\\Documents\\contracts\\contracts\\Curatable.sol",
  "compiler": {
    "name": "solc",
    "version": "0.4.18+commit.9cf6e910.Emscripten.clang"
  },
  "schemaVersion": "1.0.1",
  "updatedAt": "2018-05-11T13:21:08.351Z"
}