{
  "contractName": "QuantTokenCrowdSale",
  "abi": [
    {
      "constant": true,
      "inputs": [],
      "name": "affiliateList",
      "outputs": [
        {
          "name": "",
          "type": "address"
        }
      ],
      "payable": false,
      "stateMutability": "view",
      "type": "function"
    },
    {
      "constant": true,
      "inputs": [],
      "name": "hasClosed",
      "outputs": [
        {
          "name": "",
          "type": "bool"
        }
      ],
      "payable": false,
      "stateMutability": "view",
      "type": "function"
    },
    {
      "constant": true,
      "inputs": [],
      "name": "HardCapRate",
      "outputs": [
        {
          "name": "",
          "type": "uint256"
        }
      ],
      "payable": false,
      "stateMutability": "view",
      "type": "function"
    },
    {
      "constant": true,
      "inputs": [
        {
          "name": "",
          "type": "address"
        }
      ],
      "name": "balances",
      "outputs": [
        {
          "name": "",
          "type": "uint256"
        }
      ],
      "payable": false,
      "stateMutability": "view",
      "type": "function"
    },
    {
      "constant": true,
      "inputs": [],
      "name": "rate",
      "outputs": [
        {
          "name": "",
          "type": "uint256"
        }
      ],
      "payable": false,
      "stateMutability": "view",
      "type": "function"
    },
    {
      "constant": true,
      "inputs": [],
      "name": "weiRaised",
      "outputs": [
        {
          "name": "",
          "type": "uint256"
        }
      ],
      "payable": false,
      "stateMutability": "view",
      "type": "function"
    },
    {
      "constant": true,
      "inputs": [
        {
          "name": "",
          "type": "address"
        }
      ],
      "name": "contributions",
      "outputs": [
        {
          "name": "",
          "type": "uint256"
        }
      ],
      "payable": false,
      "stateMutability": "view",
      "type": "function"
    },
    {
      "constant": true,
      "inputs": [],
      "name": "closingTime",
      "outputs": [
        {
          "name": "",
          "type": "uint256"
        }
      ],
      "payable": false,
      "stateMutability": "view",
      "type": "function"
    },
    {
      "constant": true,
      "inputs": [],
      "name": "PresaleCap",
      "outputs": [
        {
          "name": "",
          "type": "uint256"
        }
      ],
      "payable": false,
      "stateMutability": "view",
      "type": "function"
    },
    {
      "constant": true,
      "inputs": [],
      "name": "HardCap",
      "outputs": [
        {
          "name": "",
          "type": "uint256"
        }
      ],
      "payable": false,
      "stateMutability": "view",
      "type": "function"
    },
    {
      "constant": true,
      "inputs": [],
      "name": "wallet",
      "outputs": [
        {
          "name": "",
          "type": "address"
        }
      ],
      "payable": false,
      "stateMutability": "view",
      "type": "function"
    },
    {
      "constant": true,
      "inputs": [],
      "name": "SoftCapRate",
      "outputs": [
        {
          "name": "",
          "type": "uint256"
        }
      ],
      "payable": false,
      "stateMutability": "view",
      "type": "function"
    },
    {
      "constant": true,
      "inputs": [
        {
          "name": "",
          "type": "address"
        }
      ],
      "name": "caps",
      "outputs": [
        {
          "name": "",
          "type": "uint256"
        }
      ],
      "payable": false,
      "stateMutability": "view",
      "type": "function"
    },
    {
      "constant": false,
      "inputs": [],
      "name": "_openPresale",
      "outputs": [],
      "payable": false,
      "stateMutability": "nonpayable",
      "type": "function"
    },
    {
      "constant": true,
      "inputs": [
        {
          "name": "_beneficiary",
          "type": "address"
        }
      ],
      "name": "getUserCap",
      "outputs": [
        {
          "name": "",
          "type": "uint256"
        }
      ],
      "payable": false,
      "stateMutability": "view",
      "type": "function"
    },
    {
      "constant": false,
      "inputs": [],
      "name": "withdrawTokens",
      "outputs": [],
      "payable": false,
      "stateMutability": "nonpayable",
      "type": "function"
    },
    {
      "constant": true,
      "inputs": [],
      "name": "owner",
      "outputs": [
        {
          "name": "",
          "type": "address"
        }
      ],
      "payable": false,
      "stateMutability": "view",
      "type": "function"
    },
    {
      "constant": false,
      "inputs": [
        {
          "name": "_beneficiaries",
          "type": "address[]"
        },
        {
          "name": "_cap",
          "type": "uint256"
        }
      ],
      "name": "setGroupCap",
      "outputs": [],
      "payable": false,
      "stateMutability": "nonpayable",
      "type": "function"
    },
    {
      "constant": true,
      "inputs": [],
      "name": "openingTime",
      "outputs": [
        {
          "name": "",
          "type": "uint256"
        }
      ],
      "payable": false,
      "stateMutability": "view",
      "type": "function"
    },
    {
      "constant": true,
      "inputs": [
        {
          "name": "_beneficiary",
          "type": "address"
        }
      ],
      "name": "getUserContribution",
      "outputs": [
        {
          "name": "",
          "type": "uint256"
        }
      ],
      "payable": false,
      "stateMutability": "view",
      "type": "function"
    },
    {
      "constant": false,
      "inputs": [
        {
          "name": "_beneficiary",
          "type": "address"
        },
        {
          "name": "_cap",
          "type": "uint256"
        }
      ],
      "name": "setUserCap",
      "outputs": [],
      "payable": false,
      "stateMutability": "nonpayable",
      "type": "function"
    },
    {
      "constant": false,
      "inputs": [],
      "name": "_closePresale",
      "outputs": [],
      "payable": false,
      "stateMutability": "nonpayable",
      "type": "function"
    },
    {
      "constant": true,
      "inputs": [],
      "name": "PresaleCapRate",
      "outputs": [
        {
          "name": "",
          "type": "uint256"
        }
      ],
      "payable": false,
      "stateMutability": "view",
      "type": "function"
    },
    {
      "constant": false,
      "inputs": [
        {
          "name": "_beneficiary",
          "type": "address"
        }
      ],
      "name": "buyTokens",
      "outputs": [],
      "payable": true,
      "stateMutability": "payable",
      "type": "function"
    },
    {
      "constant": true,
      "inputs": [],
      "name": "SoftCap",
      "outputs": [
        {
          "name": "",
          "type": "uint256"
        }
      ],
      "payable": false,
      "stateMutability": "view",
      "type": "function"
    },
    {
      "constant": false,
      "inputs": [
        {
          "name": "newOwner",
          "type": "address"
        }
      ],
      "name": "transferOwnership",
      "outputs": [],
      "payable": false,
      "stateMutability": "nonpayable",
      "type": "function"
    },
    {
      "constant": true,
      "inputs": [],
      "name": "token",
      "outputs": [
        {
          "name": "",
          "type": "address"
        }
      ],
      "payable": false,
      "stateMutability": "view",
      "type": "function"
    },
    {
      "inputs": [
        {
          "name": "_openingTime",
          "type": "uint256"
        },
        {
          "name": "_closingTime",
          "type": "uint256"
        },
        {
          "name": "_softcaprate",
          "type": "uint256"
        },
        {
          "name": "_hardcaprate",
          "type": "uint256"
        },
        {
          "name": "_presalerate",
          "type": "uint256"
        },
        {
          "name": "_wallet",
          "type": "address"
        },
        {
          "name": "_companyreserve",
          "type": "address"
        },
        {
          "name": "_miningpool",
          "type": "address"
        },
        {
          "name": "_icobounty",
          "type": "address"
        },
        {
          "name": "_githubbounty",
          "type": "address"
        },
        {
          "name": "_cap",
          "type": "uint256"
        },
        {
          "name": "_softcaperc",
          "type": "uint256"
        },
        {
          "name": "_presalecap",
          "type": "uint256"
        },
        {
          "name": "_token",
          "type": "address"
        }
      ],
      "payable": false,
      "stateMutability": "nonpayable",
      "type": "constructor"
    },
    {
      "payable": true,
      "stateMutability": "payable",
      "type": "fallback"
    },
    {
      "anonymous": false,
      "inputs": [
        {
          "indexed": true,
          "name": "previousOwner",
          "type": "address"
        },
        {
          "indexed": true,
          "name": "newOwner",
          "type": "address"
        }
      ],
      "name": "OwnershipTransferred",
      "type": "event"
    },
    {
      "anonymous": false,
      "inputs": [
        {
          "indexed": true,
          "name": "purchaser",
          "type": "address"
        },
        {
          "indexed": true,
          "name": "beneficiary",
          "type": "address"
        },
        {
          "indexed": false,
          "name": "value",
          "type": "uint256"
        },
        {
          "indexed": false,
          "name": "amount",
          "type": "uint256"
        }
      ],
      "name": "TokenPurchase",
      "type": "event"
    }
  ],
  "bytecode": "0x606060405234156200001057600080fd5b6040516101c080620022ac833981016040528080519060200190919080519060200190919080519060200190919080519060200190919080519060200190919080519060200190919080519060200190919080519060200190919080519060200190919080519060200190919080519060200190919080519060200190919080519060200190919080519060200190919050508d8d8d8b84600083111515620000b857600080fd5b600073ffffffffffffffffffffffffffffffffffffffff168273ffffffffffffffffffffffffffffffffffffffff1614151515620000f557600080fd5b600073ffffffffffffffffffffffffffffffffffffffff168173ffffffffffffffffffffffffffffffffffffffff16141515156200013257600080fd5b8260028190555081600160006101000a81548173ffffffffffffffffffffffffffffffffffffffff021916908373ffffffffffffffffffffffffffffffffffffffff160217905550806000806101000a81548173ffffffffffffffffffffffffffffffffffffffff021916908373ffffffffffffffffffffffffffffffffffffffff16021790555050505033600460006101000a81548173ffffffffffffffffffffffffffffffffffffffff021916908373ffffffffffffffffffffffffffffffffffffffff1602179055504282101515156200020e57600080fd5b8181101515156200021e57600080fd5b816005819055508060068190555050506000841115156200023e57600080fd5b60008e1115156200024e57600080fd5b60008d1115156200025e57600080fd5b60008c1115156200026e57600080fd5b8a8c1115156200027d57600080fd5b8a8c1115156200028c57600080fd5b600073ffffffffffffffffffffffffffffffffffffffff168973ffffffffffffffffffffffffffffffffffffffff1614151515620002c957600080fd5b600073ffffffffffffffffffffffffffffffffffffffff168873ffffffffffffffffffffffffffffffffffffffff16141515156200030657600080fd5b600073ffffffffffffffffffffffffffffffffffffffff168773ffffffffffffffffffffffffffffffffffffffff16141515156200034357600080fd5b600073ffffffffffffffffffffffffffffffffffffffff168673ffffffffffffffffffffffffffffffffffffffff16141515156200038057600080fd5b600073ffffffffffffffffffffffffffffffffffffffff168573ffffffffffffffffffffffffffffffffffffffff1614151515620003bd57600080fd5b600082111515620003cd57600080fd5b60008a111515620003dd57600080fd5b83600b819055506200040983600b54620004a0640100000000026200125f179091906401000000009004565b600a8190555081600c819055508b600d819055508a600e8190555089600f8190555062000435620004df565b604051809103906000f08015156200044c57600080fd5b601860006101000a81548173ffffffffffffffffffffffffffffffffffffffff021916908373ffffffffffffffffffffffffffffffffffffffff1602179055505050505050505050505050505050620004f0565b6000806000841415620004b75760009150620004d8565b8284029050828482811515620004c957fe5b04141515620004d457fe5b8091505b5092915050565b604051610a4a806200186283390190565b61136280620005006000396000f30060606040526004361061015f576000357c0100000000000000000000000000000000000000000000000000000000900463ffffffff16806314eba5d81461016a5780631515bc2b146101bf578063163eae47146101ec57806327e235e3146102155780632c4e722e146102625780634042b66f1461028b57806342e94c90146102b45780634b6753bc146103015780634efeb7c81461032a5780635040c6e714610353578063521eb2731461037c5780635f3aa064146103d157806366d97b21146103fa5780638a651524146104475780638b58c64c1461045c5780638d8f2adb146104a95780638da5cb5b146104be578063a31f61fc14610513578063b7a8807c1461054a578063bb8b2b4714610573578063c3143fe5146105c0578063da4e0ee814610602578063dd469ce814610617578063ec8ac4d814610640578063f0b532561461066e578063f2fde38b14610697578063fc0c546a146106d0575b61016833610725565b005b341561017557600080fd5b61017d6107f3565b604051808273ffffffffffffffffffffffffffffffffffffffff1673ffffffffffffffffffffffffffffffffffffffff16815260200191505060405180910390f35b34156101ca57600080fd5b6101d2610819565b604051808215151515815260200191505060405180910390f35b34156101f757600080fd5b6101ff610825565b6040518082815260200191505060405180910390f35b341561022057600080fd5b61024c600480803573ffffffffffffffffffffffffffffffffffffffff1690602001909190505061082b565b6040518082815260200191505060405180910390f35b341561026d57600080fd5b610275610843565b6040518082815260200191505060405180910390f35b341561029657600080fd5b61029e610849565b6040518082815260200191505060405180910390f35b34156102bf57600080fd5b6102eb600480803573ffffffffffffffffffffffffffffffffffffffff1690602001909190505061084f565b6040518082815260200191505060405180910390f35b341561030c57600080fd5b610314610867565b6040518082815260200191505060405180910390f35b341561033557600080fd5b61033d61086d565b6040518082815260200191505060405180910390f35b341561035e57600080fd5b610366610873565b6040518082815260200191505060405180910390f35b341561038757600080fd5b61038f610879565b604051808273ffffffffffffffffffffffffffffffffffffffff1673ffffffffffffffffffffffffffffffffffffffff16815260200191505060405180910390f35b34156103dc57600080fd5b6103e461089f565b6040518082815260200191505060405180910390f35b341561040557600080fd5b610431600480803573ffffffffffffffffffffffffffffffffffffffff169060200190919050506108a5565b6040518082815260200191505060405180910390f35b341561045257600080fd5b61045a6108bd565b005b341561046757600080fd5b610493600480803573ffffffffffffffffffffffffffffffffffffffff16906020019091905050610936565b6040518082815260200191505060405180910390f35b34156104b457600080fd5b6104bc61097f565b005b34156104c957600080fd5b6104d1610a37565b604051808273ffffffffffffffffffffffffffffffffffffffff1673ffffffffffffffffffffffffffffffffffffffff16815260200191505060405180910390f35b341561051e57600080fd5b61054860048080359060200190820180359060200191909192908035906020019091905050610a5d565b005b341561055557600080fd5b61055d610b4c565b6040518082815260200191505060405180910390f35b341561057e57600080fd5b6105aa600480803573ffffffffffffffffffffffffffffffffffffffff16906020019091905050610b52565b6040518082815260200191505060405180910390f35b34156105cb57600080fd5b610600600480803573ffffffffffffffffffffffffffffffffffffffff16906020019091908035906020019091905050610b9b565b005b341561060d57600080fd5b610615610c3f565b005b341561062257600080fd5b61062a610cb8565b6040518082815260200191505060405180910390f35b61066c600480803573ffffffffffffffffffffffffffffffffffffffff16906020019091905050610725565b005b341561067957600080fd5b610681610cbe565b6040518082815260200191505060405180910390f35b34156106a257600080fd5b6106ce600480803573ffffffffffffffffffffffffffffffffffffffff16906020019091905050610cc4565b005b34156106db57600080fd5b6106e3610e1c565b604051808273ffffffffffffffffffffffffffffffffffffffff1673ffffffffffffffffffffffffffffffffffffffff16815260200191505060405180910390f35b6000803491506107358383610e41565b61073e82610e92565b905061075582600354610efa90919063ffffffff16565b6003819055506107658382610f18565b8273ffffffffffffffffffffffffffffffffffffffff163373ffffffffffffffffffffffffffffffffffffffff167f623b3804fa71d67900d064613da8f94b9617215ee90799290593e1745087ad188484604051808381526020018281526020019250505060405180910390a36107dc8383610fb1565b6107e4611054565b6107ee83836110b8565b505050565b601860009054906101000a900473ffffffffffffffffffffffffffffffffffffffff1681565b60006006544211905090565b600e5481565b60096020528060005260406000206000915090505481565b60025481565b60035481565b60076020528060005260406000206000915090505481565b60065481565b600c5481565b600b5481565b600160009054906101000a900473ffffffffffffffffffffffffffffffffffffffff1681565b600d5481565b60086020528060005260406000206000915090505481565b600460009054906101000a900473ffffffffffffffffffffffffffffffffffffffff1673ffffffffffffffffffffffffffffffffffffffff163373ffffffffffffffffffffffffffffffffffffffff1614151561091957600080fd5b6001601860146101000a81548160ff021916908315150217905550565b6000600860008373ffffffffffffffffffffffffffffffffffffffff1673ffffffffffffffffffffffffffffffffffffffff168152602001908152602001600020549050919050565b6000610989610819565b151561099457600080fd5b600960003373ffffffffffffffffffffffffffffffffffffffff1673ffffffffffffffffffffffffffffffffffffffff1681526020019081526020016000205490506000811115156109e557600080fd5b6000600960003373ffffffffffffffffffffffffffffffffffffffff1673ffffffffffffffffffffffffffffffffffffffff16815260200190815260200160002081905550610a3433826110bc565b50565b600460009054906101000a900473ffffffffffffffffffffffffffffffffffffffff1681565b6000600460009054906101000a900473ffffffffffffffffffffffffffffffffffffffff1673ffffffffffffffffffffffffffffffffffffffff163373ffffffffffffffffffffffffffffffffffffffff16141515610abb57600080fd5b600090505b83839050811015610b465781600860008686858181101515610ade57fe5b9050602002013573ffffffffffffffffffffffffffffffffffffffff1673ffffffffffffffffffffffffffffffffffffffff1673ffffffffffffffffffffffffffffffffffffffff168152602001908152602001600020819055508080600101915050610ac0565b50505050565b60055481565b6000600760008373ffffffffffffffffffffffffffffffffffffffff1673ffffffffffffffffffffffffffffffffffffffff168152602001908152602001600020549050919050565b600460009054906101000a900473ffffffffffffffffffffffffffffffffffffffff1673ffffffffffffffffffffffffffffffffffffffff163373ffffffffffffffffffffffffffffffffffffffff16141515610bf757600080fd5b80600860008473ffffffffffffffffffffffffffffffffffffffff1673ffffffffffffffffffffffffffffffffffffffff168152602001908152602001600020819055505050565b600460009054906101000a900473ffffffffffffffffffffffffffffffffffffffff1673ffffffffffffffffffffffffffffffffffffffff163373ffffffffffffffffffffffffffffffffffffffff16141515610c9b57600080fd5b6000601860146101000a81548160ff021916908315150217905550565b600f5481565b600a5481565b600460009054906101000a900473ffffffffffffffffffffffffffffffffffffffff1673ffffffffffffffffffffffffffffffffffffffff163373ffffffffffffffffffffffffffffffffffffffff16141515610d2057600080fd5b600073ffffffffffffffffffffffffffffffffffffffff168173ffffffffffffffffffffffffffffffffffffffff1614151515610d5c57600080fd5b8073ffffffffffffffffffffffffffffffffffffffff16600460009054906101000a900473ffffffffffffffffffffffffffffffffffffffff1673ffffffffffffffffffffffffffffffffffffffff167f8be0079c531659141344cd1fd0a4f28419497f9722a3daafe3b4186f6b6457e060405160405180910390a380600460006101000a81548173ffffffffffffffffffffffffffffffffffffffff021916908373ffffffffffffffffffffffffffffffffffffffff16021790555050565b6000809054906101000a900473ffffffffffffffffffffffffffffffffffffffff1681565b60001515601860149054906101000a900460ff1615151415610e6c57610e6782826111b2565b610e8e565b600c546003541115601860146101000a81548160ff0219169083151502179055505b5050565b600080600d549050600a546003541115610eac57600e5490505b6001801415610edf57610edc6064610ece606e8461125f90919063ffffffff16565b61129a90919063ffffffff16565b90505b610ef2818461125f90919063ffffffff16565b915050919050565b6000808284019050838110151515610f0e57fe5b8091505092915050565b610f6a81600960008573ffffffffffffffffffffffffffffffffffffffff1673ffffffffffffffffffffffffffffffffffffffff16815260200190815260200160002054610efa90919063ffffffff16565b600960008473ffffffffffffffffffffffffffffffffffffffff1673ffffffffffffffffffffffffffffffffffffffff168152602001908152602001600020819055505050565b610fbb82826112b5565b61100d81600760008573ffffffffffffffffffffffffffffffffffffffff1673ffffffffffffffffffffffffffffffffffffffff16815260200190815260200160002054610efa90919063ffffffff16565b600760008473ffffffffffffffffffffffffffffffffffffffff1673ffffffffffffffffffffffffffffffffffffffff168152602001908152602001600020819055505050565b600160009054906101000a900473ffffffffffffffffffffffffffffffffffffffff1673ffffffffffffffffffffffffffffffffffffffff166108fc349081150290604051600060405180830381858888f1935050505015156110b657600080fd5b565b5050565b6000809054906101000a900473ffffffffffffffffffffffffffffffffffffffff1673ffffffffffffffffffffffffffffffffffffffff166340c10f1983836000604051602001526040518363ffffffff167c0100000000000000000000000000000000000000000000000000000000028152600401808373ffffffffffffffffffffffffffffffffffffffff1673ffffffffffffffffffffffffffffffffffffffff16815260200182815260200192505050602060405180830381600087803b151561118857600080fd5b6102c65a03f1151561119957600080fd5b5050506040518051905015156111ae57600080fd5b5050565b6111bc82826112b9565b600860008373ffffffffffffffffffffffffffffffffffffffff1673ffffffffffffffffffffffffffffffffffffffff1681526020019081526020016000205461124e82600760008673ffffffffffffffffffffffffffffffffffffffff1673ffffffffffffffffffffffffffffffffffffffff16815260200190815260200160002054610efa90919063ffffffff16565b1115151561125b57600080fd5b5050565b60008060008414156112745760009150611293565b828402905082848281151561128557fe5b0414151561128f57fe5b8091505b5092915050565b60008082848115156112a857fe5b0490508091505092915050565b5050565b60055442101580156112cd57506006544211155b15156112d857600080fd5b6112e282826112e6565b5050565b600073ffffffffffffffffffffffffffffffffffffffff168273ffffffffffffffffffffffffffffffffffffffff161415151561132257600080fd5b6000811415151561133257600080fd5b50505600a165627a7a723058205dfea4ce7308ac4c67973a7f3bf443ee6ebb6898edc2d7c867e9988ba805247000296060604052336000806101000a81548173ffffffffffffffffffffffffffffffffffffffff021916908373ffffffffffffffffffffffffffffffffffffffff160217905550336000806101000a81548173ffffffffffffffffffffffffffffffffffffffff021916908373ffffffffffffffffffffffffffffffffffffffff1602179055506000809054906101000a900473ffffffffffffffffffffffffffffffffffffffff16600160006101000a81548173ffffffffffffffffffffffffffffffffffffffff021916908373ffffffffffffffffffffffffffffffffffffffff160217905550610955806100f56000396000f30060606040526004361061008e576000357c0100000000000000000000000000000000000000000000000000000000900463ffffffff168063057413f7146100935780630e8ca718146100e05780632a8093cc146101195780635b8943ff146101925780638da5cb5b146101ea578063bc019eed1461023f578063e66f53b7146102b8578063f2fde38b1461030d575b600080fd5b341561009e57600080fd5b6100de600480803573ffffffffffffffffffffffffffffffffffffffff169060200190919080359060200190820180359060200191909192905050610346565b005b34156100eb57600080fd5b610117600480803573ffffffffffffffffffffffffffffffffffffffff1690602001909190505061046f565b005b341561012457600080fd5b610150600480803573ffffffffffffffffffffffffffffffffffffffff169060200190919050506105c6565b604051808273ffffffffffffffffffffffffffffffffffffffff1673ffffffffffffffffffffffffffffffffffffffff16815260200191505060405180910390f35b341561019d57600080fd5b6101e8600480803573ffffffffffffffffffffffffffffffffffffffff1690602001909190803573ffffffffffffffffffffffffffffffffffffffff169060200190919050506105f9565b005b34156101f557600080fd5b6101fd610720565b604051808273ffffffffffffffffffffffffffffffffffffffff1673ffffffffffffffffffffffffffffffffffffffff16815260200191505060405180910390f35b341561024a57600080fd5b610276600480803573ffffffffffffffffffffffffffffffffffffffff16906020019091905050610745565b604051808273ffffffffffffffffffffffffffffffffffffffff1673ffffffffffffffffffffffffffffffffffffffff16815260200191505060405180910390f35b34156102c357600080fd5b6102cb6107ae565b604051808273ffffffffffffffffffffffffffffffffffffffff1673ffffffffffffffffffffffffffffffffffffffff16815260200191505060405180910390f35b341561031857600080fd5b610344600480803573ffffffffffffffffffffffffffffffffffffffff169060200190919050506107d4565b005b6000600160009054906101000a900473ffffffffffffffffffffffffffffffffffffffff1673ffffffffffffffffffffffffffffffffffffffff163373ffffffffffffffffffffffffffffffffffffffff161415156103a457600080fd5b600090505b8282905081101561046957836002600085858581811015156103c757fe5b9050602002013573ffffffffffffffffffffffffffffffffffffffff1673ffffffffffffffffffffffffffffffffffffffff1673ffffffffffffffffffffffffffffffffffffffff16815260200190815260200160002060006101000a81548173ffffffffffffffffffffffffffffffffffffffff021916908373ffffffffffffffffffffffffffffffffffffffff16021790555080806001019150506103a9565b50505050565b6000809054906101000a900473ffffffffffffffffffffffffffffffffffffffff1673ffffffffffffffffffffffffffffffffffffffff163373ffffffffffffffffffffffffffffffffffffffff161415156104ca57600080fd5b600073ffffffffffffffffffffffffffffffffffffffff168173ffffffffffffffffffffffffffffffffffffffff161415151561050657600080fd5b8073ffffffffffffffffffffffffffffffffffffffff16600160009054906101000a900473ffffffffffffffffffffffffffffffffffffffff1673ffffffffffffffffffffffffffffffffffffffff167fa9758fcc89db640734d17c365db1788692826f95ab766ac07692cdcfa4589c1060405160405180910390a380600160006101000a81548173ffffffffffffffffffffffffffffffffffffffff021916908373ffffffffffffffffffffffffffffffffffffffff16021790555050565b60026020528060005260406000206000915054906101000a900473ffffffffffffffffffffffffffffffffffffffff1681565b600160009054906101000a900473ffffffffffffffffffffffffffffffffffffffff1673ffffffffffffffffffffffffffffffffffffffff163373ffffffffffffffffffffffffffffffffffffffff1614151561065557600080fd5b60008173ffffffffffffffffffffffffffffffffffffffff1614158015610693575060008273ffffffffffffffffffffffffffffffffffffffff1614155b151561069e57600080fd5b81600260008373ffffffffffffffffffffffffffffffffffffffff1673ffffffffffffffffffffffffffffffffffffffff16815260200190815260200160002060006101000a81548173ffffffffffffffffffffffffffffffffffffffff021916908373ffffffffffffffffffffffffffffffffffffffff1602179055505050565b6000809054906101000a900473ffffffffffffffffffffffffffffffffffffffff1681565b6000600260008373ffffffffffffffffffffffffffffffffffffffff1673ffffffffffffffffffffffffffffffffffffffff16815260200190815260200160002060009054906101000a900473ffffffffffffffffffffffffffffffffffffffff169050919050565b600160009054906101000a900473ffffffffffffffffffffffffffffffffffffffff1681565b6000809054906101000a900473ffffffffffffffffffffffffffffffffffffffff1673ffffffffffffffffffffffffffffffffffffffff163373ffffffffffffffffffffffffffffffffffffffff1614151561082f57600080fd5b600073ffffffffffffffffffffffffffffffffffffffff168173ffffffffffffffffffffffffffffffffffffffff161415151561086b57600080fd5b8073ffffffffffffffffffffffffffffffffffffffff166000809054906101000a900473ffffffffffffffffffffffffffffffffffffffff1673ffffffffffffffffffffffffffffffffffffffff167f8be0079c531659141344cd1fd0a4f28419497f9722a3daafe3b4186f6b6457e060405160405180910390a3806000806101000a81548173ffffffffffffffffffffffffffffffffffffffff021916908373ffffffffffffffffffffffffffffffffffffffff160217905550505600a165627a7a7230582075dd4cab4adf8830804cec8359ca7ae14d79fd39cf220a82d3711c86934fb62c0029",
  "source": "pragma solidity ^0.4.17;\r\nimport \"./QuantToken.sol\";\r\nimport \"./AffiliateList.sol\";\r\n\r\nimport \"zeppelin-solidity/contracts/crowdsale/validation/IndividuallyCappedCrowdsale.sol\";\r\nimport \"zeppelin-solidity/contracts/crowdsale/validation/TimedCrowdsale.sol\";\r\nimport \"zeppelin-solidity/contracts/crowdsale/emission/MintedCrowdsale.sol\";\r\nimport \"zeppelin-solidity/contracts/crowdsale/distribution/PostDeliveryCrowdsale.sol\";\r\n\r\n/**\r\n * @title SampleCrowdsale\r\n * @dev General crowd sale of the QUANT Token, following integrations is used:\r\n *      - IndividuallyCappedCrowdsale: used for whitelisting (individually capped), if not present you cannot buy any tokens\r\n *      - TimedCrowdsale: CrowdSale will last a specific length\r\n *      - MintedCrowdsale: Tokens will be minted\r\n *      - PostDeliveryCrowdsale: Tokens will be distributed after crowdsale\r\n *      - AffiliateList: affiliate distribution and registration\r\n */\r\ncontract QuantTokenCrowdSale is TimedCrowdsale, IndividuallyCappedCrowdsale, MintedCrowdsale, PostDeliveryCrowdsale {\r\n\r\n    // Current public soft cap\r\n    uint256 public SoftCap;\r\n\r\n    // Current public hard cap\r\n    uint256 public HardCap;\r\n\r\n    // Current public presale cap\r\n    uint256 public PresaleCap;\r\n\r\n    // Current public soft cap-rate\r\n    uint256 public SoftCapRate;\r\n\r\n    // Current public hard cap-rate\r\n    uint256 public HardCapRate;\r\n\r\n    // Current public presale cap-rate\r\n    uint256 public PresaleCapRate;\r\n\r\n    //Company reserve destionation address\r\n    address CompanyReserve;\r\n\r\n    //Mining pool destination address\r\n    address MiningPool;\r\n\r\n    //ICO bounty destination address\r\n    address ICOBounty;\r\n\r\n    //Github bounty destination address\r\n    address GithubBounty; \r\n\r\n    //Company Percentage\r\n    uint256 CompanyPercentage;\r\n\r\n    //MiningPool Percentage\r\n    uint256 MiningPoolPercentage;\r\n\r\n    //ICOBounty Percentage\r\n    uint256 ICOBountyPercentage;\r\n\r\n    //GithubBounty Percentage\r\n    uint256 GithubBountyPercentage;\r\n\r\n    //Affiliate registry\r\n    AffiliateList public affiliateList;\r\n\r\n    //Pre-Sale check\r\n    bool IsPreSaleOpen;\r\n\r\n  /**\r\n   * @dev The QuantTokenCrowdSale constructor sets the initial crowdsale parameters.\r\n   */\r\n  function QuantTokenCrowdSale(\r\n    uint256 _openingTime,\r\n    uint256 _closingTime,\r\n    uint256 _softcaprate,\r\n    uint256 _hardcaprate,\r\n    uint256 _presalerate,\r\n    address _wallet,\r\n    address _companyreserve,\r\n    address _miningpool,\r\n    address _icobounty,\r\n    address _githubbounty,\r\n    uint256 _cap,\r\n    uint256 _softcaperc,\r\n    uint256 _presalecap,\r\n    QuantToken _token\r\n  )\r\n    public\r\n    Crowdsale(_softcaprate, _wallet, _token)\r\n    TimedCrowdsale(_openingTime, _closingTime)\r\n  {\r\n      //Check input\r\n      require(_cap > 0);\r\n      require(_openingTime > 0);\r\n      require(_closingTime > 0);\r\n      require(_softcaprate > 0);\r\n      require(_softcaprate > _hardcaprate);\r\n      require(_softcaprate > _hardcaprate);\r\n      require(_wallet != address(0));\r\n      require(_companyreserve != address(0));\r\n      require(_miningpool != address(0));\r\n      require(_icobounty != address(0));\r\n      require(_githubbounty != address(0));\r\n      require(_presalecap > 0);\r\n      require(_presalerate > 0);\r\n\r\n      //Set items\r\n      HardCap = _cap;\r\n      SoftCap = HardCap.mul(_softcaperc);\r\n      PresaleCap = _presalecap;\r\n      SoftCapRate = _softcaprate;\r\n      HardCapRate = _hardcaprate;\r\n      PresaleCapRate = _presalerate;\r\n      affiliateList = new AffiliateList();\r\n  }\r\n\r\n  /**\r\n   * @dev Override to extend the way in which ether is converted to tokens.\r\n   * @param _weiAmount Value in wei to be converted into tokens\r\n   * @return Number of tokens that can be purchased with the specified _weiAmount\r\n   */\r\n  function _getTokenAmount(uint256 _weiAmount) internal view returns (uint256) {\r\n    \r\n    //Check if soft-cap has been hit\r\n    uint256 _rate = SoftCapRate;\r\n    if(weiRaised > SoftCap)\r\n        _rate = HardCapRate;\r\n\r\n    //Check if additional affiliate amounts should be applied\r\n    //if(affiliateList.getAffiliate(0))\r\n    if(1==1)\r\n        _rate = _rate.mul(110).div(100);\r\n\r\n    //Return total amount, based on current rate\r\n    return _weiAmount.mul(_rate);\r\n  }\r\n\r\n    /**\r\n   * @dev Executed when a purchase has been validated and is ready to be executed. Not necessarily emits/sends tokens.\r\n   * @param _beneficiary Address receiving the tokens\r\n   * @param _tokenAmount Number of tokens to be purchased\r\n   */\r\n  function _processPurchase(address _beneficiary, uint256 _tokenAmount) internal {\r\n      //Here we specify who gets what amount of tokens (Buyer/_beneficiary 30%, Company Address 50% etc...) + affiliate\r\n    balances[_beneficiary] = balances[_beneficiary].add(_tokenAmount);\r\n  }\r\n\r\n  /**\r\n   * @dev Extend parent behavior requiring to be within contributing period\r\n   * @param _beneficiary Token purchaser\r\n   * @param _weiAmount Amount of wei contributed\r\n   */\r\n  function _preValidatePurchase(address _beneficiary, uint256 _weiAmount) internal {\r\n    if(IsPreSaleOpen == false)\r\n      super._preValidatePurchase(_beneficiary, _weiAmount);\r\n    else\r\n      IsPreSaleOpen = weiRaised <= PresaleCap;\r\n  }\r\n\r\n  /**\r\n   * @dev Open the presale on any given moment\r\n   */\r\n  function _openPresale() external onlyOwner{\r\n    IsPreSaleOpen = true;\r\n  }\r\n\r\n  /**\r\n   * @dev Close the presale manually\r\n   */\r\n  function _closePresale() external onlyOwner{\r\n    IsPreSaleOpen = false;\r\n  }\r\n}",
  "sourcePath": "C:\\Users\\MennoHamburg\\Documents\\contracts\\contracts\\QuantTokenCrowdSale.sol",
  "compiler": {
    "name": "solc",
    "version": "0.4.18+commit.9cf6e910.Emscripten.clang"
  },
  "schemaVersion": "1.0.1",
  "updatedAt": "2018-05-11T13:21:08.361Z"
}