{
  "contractName": "QuantTokenCrowdSale",
  "abi": [
    {
      "constant": false,
      "inputs": [
        {
          "name": "_affiliate",
          "type": "address"
        },
        {
          "name": "_investors",
          "type": "address[]"
        }
      ],
      "name": "setGroupAffiliate",
      "outputs": [],
      "payable": false,
      "stateMutability": "nonpayable",
      "type": "function"
    },
    {
      "constant": false,
      "inputs": [
        {
          "name": "newCurator",
          "type": "address"
        }
      ],
      "name": "transferCurationRights",
      "outputs": [],
      "payable": false,
      "stateMutability": "nonpayable",
      "type": "function"
    },
    {
      "constant": true,
      "inputs": [],
      "name": "affiliateList",
      "outputs": [
        {
          "name": "",
          "type": "address"
        }
      ],
      "payable": false,
      "stateMutability": "view",
      "type": "function"
    },
    {
      "constant": true,
      "inputs": [],
      "name": "hasClosed",
      "outputs": [
        {
          "name": "",
          "type": "bool"
        }
      ],
      "payable": false,
      "stateMutability": "view",
      "type": "function"
    },
    {
      "constant": true,
      "inputs": [],
      "name": "HardCapRate",
      "outputs": [
        {
          "name": "",
          "type": "uint256"
        }
      ],
      "payable": false,
      "stateMutability": "view",
      "type": "function"
    },
    {
      "constant": true,
      "inputs": [
        {
          "name": "",
          "type": "address"
        }
      ],
      "name": "balances",
      "outputs": [
        {
          "name": "",
          "type": "uint256"
        }
      ],
      "payable": false,
      "stateMutability": "view",
      "type": "function"
    },
    {
      "constant": true,
      "inputs": [
        {
          "name": "",
          "type": "address"
        }
      ],
      "name": "affiliateList",
      "outputs": [
        {
          "name": "",
          "type": "address"
        }
      ],
      "payable": false,
      "stateMutability": "view",
      "type": "function"
    },
    {
      "constant": true,
      "inputs": [],
      "name": "rate",
      "outputs": [
        {
          "name": "",
          "type": "uint256"
        }
      ],
      "payable": false,
      "stateMutability": "view",
      "type": "function"
    },
    {
      "constant": true,
      "inputs": [],
      "name": "weiRaised",
      "outputs": [
        {
          "name": "",
          "type": "uint256"
        }
      ],
      "payable": false,
      "stateMutability": "view",
      "type": "function"
    },
    {
      "constant": true,
      "inputs": [
        {
          "name": "",
          "type": "address"
        }
      ],
      "name": "contributions",
      "outputs": [
        {
          "name": "",
          "type": "uint256"
        }
      ],
      "payable": false,
      "stateMutability": "view",
      "type": "function"
    },
    {
      "constant": true,
      "inputs": [],
      "name": "closingTime",
      "outputs": [
        {
          "name": "",
          "type": "uint256"
        }
      ],
      "payable": false,
      "stateMutability": "view",
      "type": "function"
    },
    {
      "constant": true,
      "inputs": [],
      "name": "PresaleCap",
      "outputs": [
        {
          "name": "",
          "type": "uint256"
        }
      ],
      "payable": false,
      "stateMutability": "view",
      "type": "function"
    },
    {
      "constant": true,
      "inputs": [],
      "name": "HardCap",
      "outputs": [
        {
          "name": "",
          "type": "uint256"
        }
      ],
      "payable": false,
      "stateMutability": "view",
      "type": "function"
    },
    {
      "constant": true,
      "inputs": [],
      "name": "wallet",
      "outputs": [
        {
          "name": "",
          "type": "address"
        }
      ],
      "payable": false,
      "stateMutability": "view",
      "type": "function"
    },
    {
      "constant": false,
      "inputs": [
        {
          "name": "_affiliate",
          "type": "address"
        },
        {
          "name": "_investor",
          "type": "address"
        }
      ],
      "name": "addAffiliate",
      "outputs": [],
      "payable": false,
      "stateMutability": "nonpayable",
      "type": "function"
    },
    {
      "constant": true,
      "inputs": [],
      "name": "SoftCapRate",
      "outputs": [
        {
          "name": "",
          "type": "uint256"
        }
      ],
      "payable": false,
      "stateMutability": "view",
      "type": "function"
    },
    {
      "constant": false,
      "inputs": [],
      "name": "closePresale",
      "outputs": [],
      "payable": false,
      "stateMutability": "nonpayable",
      "type": "function"
    },
    {
      "constant": true,
      "inputs": [
        {
          "name": "",
          "type": "address"
        }
      ],
      "name": "caps",
      "outputs": [
        {
          "name": "",
          "type": "uint256"
        }
      ],
      "payable": false,
      "stateMutability": "view",
      "type": "function"
    },
    {
      "constant": true,
      "inputs": [
        {
          "name": "_beneficiary",
          "type": "address"
        }
      ],
      "name": "getUserCap",
      "outputs": [
        {
          "name": "",
          "type": "uint256"
        }
      ],
      "payable": false,
      "stateMutability": "view",
      "type": "function"
    },
    {
      "constant": false,
      "inputs": [],
      "name": "withdrawTokens",
      "outputs": [],
      "payable": false,
      "stateMutability": "nonpayable",
      "type": "function"
    },
    {
      "constant": true,
      "inputs": [],
      "name": "owner",
      "outputs": [
        {
          "name": "",
          "type": "address"
        }
      ],
      "payable": false,
      "stateMutability": "view",
      "type": "function"
    },
    {
      "constant": false,
      "inputs": [],
      "name": "openPresale",
      "outputs": [],
      "payable": false,
      "stateMutability": "nonpayable",
      "type": "function"
    },
    {
      "constant": false,
      "inputs": [
        {
          "name": "_beneficiaries",
          "type": "address[]"
        },
        {
          "name": "_cap",
          "type": "uint256"
        }
      ],
      "name": "setGroupCap",
      "outputs": [],
      "payable": false,
      "stateMutability": "nonpayable",
      "type": "function"
    },
    {
      "constant": true,
      "inputs": [],
      "name": "openingTime",
      "outputs": [
        {
          "name": "",
          "type": "uint256"
        }
      ],
      "payable": false,
      "stateMutability": "view",
      "type": "function"
    },
    {
      "constant": true,
      "inputs": [
        {
          "name": "_beneficiary",
          "type": "address"
        }
      ],
      "name": "getUserContribution",
      "outputs": [
        {
          "name": "",
          "type": "uint256"
        }
      ],
      "payable": false,
      "stateMutability": "view",
      "type": "function"
    },
    {
      "constant": false,
      "inputs": [
        {
          "name": "_investor",
          "type": "address"
        }
      ],
      "name": "getAffiliate",
      "outputs": [
        {
          "name": "affiliate",
          "type": "address"
        }
      ],
      "payable": false,
      "stateMutability": "nonpayable",
      "type": "function"
    },
    {
      "constant": false,
      "inputs": [
        {
          "name": "_beneficiary",
          "type": "address"
        },
        {
          "name": "_cap",
          "type": "uint256"
        }
      ],
      "name": "setUserCap",
      "outputs": [],
      "payable": false,
      "stateMutability": "nonpayable",
      "type": "function"
    },
    {
      "constant": true,
      "inputs": [],
      "name": "PresaleCapRate",
      "outputs": [
        {
          "name": "",
          "type": "uint256"
        }
      ],
      "payable": false,
      "stateMutability": "view",
      "type": "function"
    },
    {
      "constant": true,
      "inputs": [],
      "name": "curator",
      "outputs": [
        {
          "name": "",
          "type": "address"
        }
      ],
      "payable": false,
      "stateMutability": "view",
      "type": "function"
    },
    {
      "constant": false,
      "inputs": [
        {
          "name": "_beneficiary",
          "type": "address"
        }
      ],
      "name": "buyTokens",
      "outputs": [],
      "payable": true,
      "stateMutability": "payable",
      "type": "function"
    },
    {
      "constant": true,
      "inputs": [],
      "name": "SoftCap",
      "outputs": [
        {
          "name": "",
          "type": "uint256"
        }
      ],
      "payable": false,
      "stateMutability": "view",
      "type": "function"
    },
    {
      "constant": false,
      "inputs": [
        {
          "name": "newOwner",
          "type": "address"
        }
      ],
      "name": "transferOwnership",
      "outputs": [],
      "payable": false,
      "stateMutability": "nonpayable",
      "type": "function"
    },
    {
      "constant": true,
      "inputs": [],
      "name": "token",
      "outputs": [
        {
          "name": "",
          "type": "address"
        }
      ],
      "payable": false,
      "stateMutability": "view",
      "type": "function"
    },
    {
      "inputs": [
        {
          "name": "_openingTime",
          "type": "uint256"
        },
        {
          "name": "_closingTime",
          "type": "uint256"
        },
        {
          "name": "_softcaprate",
          "type": "uint256"
        },
        {
          "name": "_hardcaprate",
          "type": "uint256"
        },
        {
          "name": "_presalerate",
          "type": "uint256"
        },
        {
          "name": "_wallet",
          "type": "address"
        },
        {
          "name": "_companyreserve",
          "type": "address"
        },
        {
          "name": "_miningpool",
          "type": "address"
        },
        {
          "name": "_icobounty",
          "type": "address"
        },
        {
          "name": "_githubbounty",
          "type": "address"
        },
        {
          "name": "_cap",
          "type": "uint256"
        },
        {
          "name": "_softcaperc",
          "type": "uint256"
        },
        {
          "name": "_presalecap",
          "type": "uint256"
        },
        {
          "name": "_token",
          "type": "address"
        }
      ],
      "payable": false,
      "stateMutability": "nonpayable",
      "type": "constructor"
    },
    {
      "payable": true,
      "stateMutability": "payable",
      "type": "fallback"
    },
    {
      "anonymous": false,
      "inputs": [
        {
          "indexed": true,
          "name": "previousCurator",
          "type": "address"
        },
        {
          "indexed": true,
          "name": "newCurator",
          "type": "address"
        }
      ],
      "name": "CurationRightsTransferred",
      "type": "event"
    },
    {
      "anonymous": false,
      "inputs": [
        {
          "indexed": true,
          "name": "previousOwner",
          "type": "address"
        },
        {
          "indexed": true,
          "name": "newOwner",
          "type": "address"
        }
      ],
      "name": "OwnershipTransferred",
      "type": "event"
    },
    {
      "anonymous": false,
      "inputs": [
        {
          "indexed": true,
          "name": "purchaser",
          "type": "address"
        },
        {
          "indexed": true,
          "name": "beneficiary",
          "type": "address"
        },
        {
          "indexed": false,
          "name": "value",
          "type": "uint256"
        },
        {
          "indexed": false,
          "name": "amount",
          "type": "uint256"
        }
      ],
      "name": "TokenPurchase",
      "type": "event"
    }
  ],
  "bytecode": "0x606060405234156200001057600080fd5b6040516101c08062002a97833981016040528080519060200190919080519060200190919080519060200190919080519060200190919080519060200190919080519060200190919080519060200190919080519060200190919080519060200190919080519060200190919080519060200190919080519060200190919080519060200190919080519060200190919050508d8d8d8b84600083111515620000b857600080fd5b600073ffffffffffffffffffffffffffffffffffffffff168273ffffffffffffffffffffffffffffffffffffffff1614151515620000f557600080fd5b600073ffffffffffffffffffffffffffffffffffffffff168173ffffffffffffffffffffffffffffffffffffffff16141515156200013257600080fd5b8260028190555081600160006101000a81548173ffffffffffffffffffffffffffffffffffffffff021916908373ffffffffffffffffffffffffffffffffffffffff160217905550806000806101000a81548173ffffffffffffffffffffffffffffffffffffffff021916908373ffffffffffffffffffffffffffffffffffffffff160217905550505050428210151515620001cd57600080fd5b818110151515620001dd57600080fd5b8160048190555080600581905550505033600660006101000a81548173ffffffffffffffffffffffffffffffffffffffff021916908373ffffffffffffffffffffffffffffffffffffffff16021790555033600660006101000a81548173ffffffffffffffffffffffffffffffffffffffff021916908373ffffffffffffffffffffffffffffffffffffffff160217905550600660009054906101000a900473ffffffffffffffffffffffffffffffffffffffff16600a60006101000a81548173ffffffffffffffffffffffffffffffffffffffff021916908373ffffffffffffffffffffffffffffffffffffffff160217905550600084111515620002e257600080fd5b60008e111515620002f257600080fd5b60008d1115156200030257600080fd5b60008c1115156200031257600080fd5b8a8c1115156200032157600080fd5b8a8c1115156200033057600080fd5b600073ffffffffffffffffffffffffffffffffffffffff168973ffffffffffffffffffffffffffffffffffffffff16141515156200036d57600080fd5b600073ffffffffffffffffffffffffffffffffffffffff168873ffffffffffffffffffffffffffffffffffffffff1614151515620003aa57600080fd5b600073ffffffffffffffffffffffffffffffffffffffff168773ffffffffffffffffffffffffffffffffffffffff1614151515620003e757600080fd5b600073ffffffffffffffffffffffffffffffffffffffff168673ffffffffffffffffffffffffffffffffffffffff16141515156200042457600080fd5b600073ffffffffffffffffffffffffffffffffffffffff168573ffffffffffffffffffffffffffffffffffffffff16141515156200046157600080fd5b6000821115156200047157600080fd5b60008a1115156200048157600080fd5b83600d81905550620004ad83600d5462000544640100000000026200196b179091906401000000009004565b600c8190555081600e819055508b600f819055508a60108190555089601181905550620004d962000583565b604051809103906000f0801515620004f057600080fd5b601a60006101000a81548173ffffffffffffffffffffffffffffffffffffffff021916908373ffffffffffffffffffffffffffffffffffffffff160217905550505050505050505050505050505062000594565b60008060008414156200055b57600091506200057c565b82840290508284828115156200056d57fe5b041415156200057857fe5b8091505b5092915050565b604051610a85806200201283390190565b611a6e80620005a46000396000f3006060604052600436106101a1576000357c0100000000000000000000000000000000000000000000000000000000900463ffffffff168063057413f7146101ac5780630e8ca718146101f957806314eba5d8146102325780631515bc2b14610287578063163eae47146102b457806327e235e3146102dd5780632a8093cc1461032a5780632c4e722e146103a35780634042b66f146103cc57806342e94c90146103f55780634b6753bc146104425780634efeb7c81461046b5780635040c6e714610494578063521eb273146104bd5780635b8943ff146105125780635f3aa0641461056a57806363cea4501461059357806366d97b21146105a85780638b58c64c146105f55780638d8f2adb146106425780638da5cb5b146106575780638dd98312146106ac578063a31f61fc146106c1578063b7a8807c146106f8578063bb8b2b4714610721578063bc019eed1461076e578063c3143fe5146107e7578063dd469ce814610829578063e66f53b714610852578063ec8ac4d8146108a7578063f0b53256146108d5578063f2fde38b146108fe578063fc0c546a14610937575b6101aa3361098c565b005b34156101b757600080fd5b6101f7600480803573ffffffffffffffffffffffffffffffffffffffff169060200190919080359060200190820180359060200191909192905050610a5a565b005b341561020457600080fd5b610230600480803573ffffffffffffffffffffffffffffffffffffffff16906020019091905050610b83565b005b341561023d57600080fd5b610245610cdb565b604051808273ffffffffffffffffffffffffffffffffffffffff1673ffffffffffffffffffffffffffffffffffffffff16815260200191505060405180910390f35b341561029257600080fd5b61029a610d01565b604051808215151515815260200191505060405180910390f35b34156102bf57600080fd5b6102c7610d0d565b6040518082815260200191505060405180910390f35b34156102e857600080fd5b610314600480803573ffffffffffffffffffffffffffffffffffffffff16906020019091905050610d13565b6040518082815260200191505060405180910390f35b341561033557600080fd5b610361600480803573ffffffffffffffffffffffffffffffffffffffff16906020019091905050610d2b565b604051808273ffffffffffffffffffffffffffffffffffffffff1673ffffffffffffffffffffffffffffffffffffffff16815260200191505060405180910390f35b34156103ae57600080fd5b6103b6610d5e565b6040518082815260200191505060405180910390f35b34156103d757600080fd5b6103df610d64565b6040518082815260200191505060405180910390f35b341561040057600080fd5b61042c600480803573ffffffffffffffffffffffffffffffffffffffff16906020019091905050610d6a565b6040518082815260200191505060405180910390f35b341561044d57600080fd5b610455610d82565b6040518082815260200191505060405180910390f35b341561047657600080fd5b61047e610d88565b6040518082815260200191505060405180910390f35b341561049f57600080fd5b6104a7610d8e565b6040518082815260200191505060405180910390f35b34156104c857600080fd5b6104d0610d94565b604051808273ffffffffffffffffffffffffffffffffffffffff1673ffffffffffffffffffffffffffffffffffffffff16815260200191505060405180910390f35b341561051d57600080fd5b610568600480803573ffffffffffffffffffffffffffffffffffffffff1690602001909190803573ffffffffffffffffffffffffffffffffffffffff16906020019091905050610dba565b005b341561057557600080fd5b61057d610f1c565b6040518082815260200191505060405180910390f35b341561059e57600080fd5b6105a6610f22565b005b34156105b357600080fd5b6105df600480803573ffffffffffffffffffffffffffffffffffffffff16906020019091905050610f9b565b6040518082815260200191505060405180910390f35b341561060057600080fd5b61062c600480803573ffffffffffffffffffffffffffffffffffffffff16906020019091905050610fb3565b6040518082815260200191505060405180910390f35b341561064d57600080fd5b610655610ffc565b005b341561066257600080fd5b61066a6110b4565b604051808273ffffffffffffffffffffffffffffffffffffffff1673ffffffffffffffffffffffffffffffffffffffff16815260200191505060405180910390f35b34156106b757600080fd5b6106bf6110da565b005b34156106cc57600080fd5b6106f660048080359060200190820180359060200191909192908035906020019091905050611153565b005b341561070357600080fd5b61070b611242565b6040518082815260200191505060405180910390f35b341561072c57600080fd5b610758600480803573ffffffffffffffffffffffffffffffffffffffff16906020019091905050611248565b6040518082815260200191505060405180910390f35b341561077957600080fd5b6107a5600480803573ffffffffffffffffffffffffffffffffffffffff16906020019091905050611291565b604051808273ffffffffffffffffffffffffffffffffffffffff1673ffffffffffffffffffffffffffffffffffffffff16815260200191505060405180910390f35b34156107f257600080fd5b610827600480803573ffffffffffffffffffffffffffffffffffffffff169060200190919080359060200190919050506112fa565b005b341561083457600080fd5b61083c61139e565b6040518082815260200191505060405180910390f35b341561085d57600080fd5b6108656113a4565b604051808273ffffffffffffffffffffffffffffffffffffffff1673ffffffffffffffffffffffffffffffffffffffff16815260200191505060405180910390f35b6108d3600480803573ffffffffffffffffffffffffffffffffffffffff1690602001909190505061098c565b005b34156108e057600080fd5b6108e86113ca565b6040518082815260200191505060405180910390f35b341561090957600080fd5b610935600480803573ffffffffffffffffffffffffffffffffffffffff169060200190919050506113d0565b005b341561094257600080fd5b61094a611528565b604051808273ffffffffffffffffffffffffffffffffffffffff1673ffffffffffffffffffffffffffffffffffffffff16815260200191505060405180910390f35b60008034915061099c838361154d565b6109a58261159e565b90506109bc8260035461160690919063ffffffff16565b6003819055506109cc8382611624565b8273ffffffffffffffffffffffffffffffffffffffff163373ffffffffffffffffffffffffffffffffffffffff167f623b3804fa71d67900d064613da8f94b9617215ee90799290593e1745087ad188484604051808381526020018281526020019250505060405180910390a3610a4383836116bd565b610a4b611760565b610a5583836117c4565b505050565b6000600a60009054906101000a900473ffffffffffffffffffffffffffffffffffffffff1673ffffffffffffffffffffffffffffffffffffffff163373ffffffffffffffffffffffffffffffffffffffff16141515610ab857600080fd5b600090505b82829050811015610b7d5783600b60008585858181101515610adb57fe5b9050602002013573ffffffffffffffffffffffffffffffffffffffff1673ffffffffffffffffffffffffffffffffffffffff1673ffffffffffffffffffffffffffffffffffffffff16815260200190815260200160002060006101000a81548173ffffffffffffffffffffffffffffffffffffffff021916908373ffffffffffffffffffffffffffffffffffffffff1602179055508080600101915050610abd565b50505050565b600660009054906101000a900473ffffffffffffffffffffffffffffffffffffffff1673ffffffffffffffffffffffffffffffffffffffff163373ffffffffffffffffffffffffffffffffffffffff16141515610bdf57600080fd5b600073ffffffffffffffffffffffffffffffffffffffff168173ffffffffffffffffffffffffffffffffffffffff1614151515610c1b57600080fd5b8073ffffffffffffffffffffffffffffffffffffffff16600a60009054906101000a900473ffffffffffffffffffffffffffffffffffffffff1673ffffffffffffffffffffffffffffffffffffffff167fa9758fcc89db640734d17c365db1788692826f95ab766ac07692cdcfa4589c1060405160405180910390a380600a60006101000a81548173ffffffffffffffffffffffffffffffffffffffff021916908373ffffffffffffffffffffffffffffffffffffffff16021790555050565b601a60009054906101000a900473ffffffffffffffffffffffffffffffffffffffff1681565b60006005544211905090565b60105481565b60096020528060005260406000206000915090505481565b600b6020528060005260406000206000915054906101000a900473ffffffffffffffffffffffffffffffffffffffff1681565b60025481565b60035481565b60076020528060005260406000206000915090505481565b60055481565b600e5481565b600d5481565b600160009054906101000a900473ffffffffffffffffffffffffffffffffffffffff1681565b600a60009054906101000a900473ffffffffffffffffffffffffffffffffffffffff1673ffffffffffffffffffffffffffffffffffffffff163373ffffffffffffffffffffffffffffffffffffffff16141515610e1657600080fd5b60008173ffffffffffffffffffffffffffffffffffffffff1614158015610e54575060008273ffffffffffffffffffffffffffffffffffffffff1614155b1515610e5f57600080fd5b8073ffffffffffffffffffffffffffffffffffffffff168273ffffffffffffffffffffffffffffffffffffffff1614151515610e9a57600080fd5b81600b60008373ffffffffffffffffffffffffffffffffffffffff1673ffffffffffffffffffffffffffffffffffffffff16815260200190815260200160002060006101000a81548173ffffffffffffffffffffffffffffffffffffffff021916908373ffffffffffffffffffffffffffffffffffffffff1602179055505050565b600f5481565b600660009054906101000a900473ffffffffffffffffffffffffffffffffffffffff1673ffffffffffffffffffffffffffffffffffffffff163373ffffffffffffffffffffffffffffffffffffffff16141515610f7e57600080fd5b6000601a60146101000a81548160ff021916908315150217905550565b60086020528060005260406000206000915090505481565b6000600860008373ffffffffffffffffffffffffffffffffffffffff1673ffffffffffffffffffffffffffffffffffffffff168152602001908152602001600020549050919050565b6000611006610d01565b151561101157600080fd5b600960003373ffffffffffffffffffffffffffffffffffffffff1673ffffffffffffffffffffffffffffffffffffffff16815260200190815260200160002054905060008111151561106257600080fd5b6000600960003373ffffffffffffffffffffffffffffffffffffffff1673ffffffffffffffffffffffffffffffffffffffff168152602001908152602001600020819055506110b133826117c8565b50565b600660009054906101000a900473ffffffffffffffffffffffffffffffffffffffff1681565b600660009054906101000a900473ffffffffffffffffffffffffffffffffffffffff1673ffffffffffffffffffffffffffffffffffffffff163373ffffffffffffffffffffffffffffffffffffffff1614151561113657600080fd5b6001601a60146101000a81548160ff021916908315150217905550565b6000600660009054906101000a900473ffffffffffffffffffffffffffffffffffffffff1673ffffffffffffffffffffffffffffffffffffffff163373ffffffffffffffffffffffffffffffffffffffff161415156111b157600080fd5b600090505b8383905081101561123c57816008600086868581811015156111d457fe5b9050602002013573ffffffffffffffffffffffffffffffffffffffff1673ffffffffffffffffffffffffffffffffffffffff1673ffffffffffffffffffffffffffffffffffffffff1681526020019081526020016000208190555080806001019150506111b6565b50505050565b60045481565b6000600760008373ffffffffffffffffffffffffffffffffffffffff1673ffffffffffffffffffffffffffffffffffffffff168152602001908152602001600020549050919050565b6000600b60008373ffffffffffffffffffffffffffffffffffffffff1673ffffffffffffffffffffffffffffffffffffffff16815260200190815260200160002060009054906101000a900473ffffffffffffffffffffffffffffffffffffffff169050919050565b600660009054906101000a900473ffffffffffffffffffffffffffffffffffffffff1673ffffffffffffffffffffffffffffffffffffffff163373ffffffffffffffffffffffffffffffffffffffff1614151561135657600080fd5b80600860008473ffffffffffffffffffffffffffffffffffffffff1673ffffffffffffffffffffffffffffffffffffffff168152602001908152602001600020819055505050565b60115481565b600a60009054906101000a900473ffffffffffffffffffffffffffffffffffffffff1681565b600c5481565b600660009054906101000a900473ffffffffffffffffffffffffffffffffffffffff1673ffffffffffffffffffffffffffffffffffffffff163373ffffffffffffffffffffffffffffffffffffffff1614151561142c57600080fd5b600073ffffffffffffffffffffffffffffffffffffffff168173ffffffffffffffffffffffffffffffffffffffff161415151561146857600080fd5b8073ffffffffffffffffffffffffffffffffffffffff16600660009054906101000a900473ffffffffffffffffffffffffffffffffffffffff1673ffffffffffffffffffffffffffffffffffffffff167f8be0079c531659141344cd1fd0a4f28419497f9722a3daafe3b4186f6b6457e060405160405180910390a380600660006101000a81548173ffffffffffffffffffffffffffffffffffffffff021916908373ffffffffffffffffffffffffffffffffffffffff16021790555050565b6000809054906101000a900473ffffffffffffffffffffffffffffffffffffffff1681565b60001515601a60149054906101000a900460ff16151514156115785761157382826118be565b61159a565b600e546003541115601a60146101000a81548160ff0219169083151502179055505b5050565b600080600f549050600c5460035411156115b85760105490505b60018014156115eb576115e860646115da606e8461196b90919063ffffffff16565b6119a690919063ffffffff16565b90505b6115fe818461196b90919063ffffffff16565b915050919050565b600080828401905083811015151561161a57fe5b8091505092915050565b61167681600960008573ffffffffffffffffffffffffffffffffffffffff1673ffffffffffffffffffffffffffffffffffffffff1681526020019081526020016000205461160690919063ffffffff16565b600960008473ffffffffffffffffffffffffffffffffffffffff1673ffffffffffffffffffffffffffffffffffffffff168152602001908152602001600020819055505050565b6116c782826119c1565b61171981600760008573ffffffffffffffffffffffffffffffffffffffff1673ffffffffffffffffffffffffffffffffffffffff1681526020019081526020016000205461160690919063ffffffff16565b600760008473ffffffffffffffffffffffffffffffffffffffff1673ffffffffffffffffffffffffffffffffffffffff168152602001908152602001600020819055505050565b600160009054906101000a900473ffffffffffffffffffffffffffffffffffffffff1673ffffffffffffffffffffffffffffffffffffffff166108fc349081150290604051600060405180830381858888f1935050505015156117c257600080fd5b565b5050565b6000809054906101000a900473ffffffffffffffffffffffffffffffffffffffff1673ffffffffffffffffffffffffffffffffffffffff166340c10f1983836000604051602001526040518363ffffffff167c0100000000000000000000000000000000000000000000000000000000028152600401808373ffffffffffffffffffffffffffffffffffffffff1673ffffffffffffffffffffffffffffffffffffffff16815260200182815260200192505050602060405180830381600087803b151561189457600080fd5b6102c65a03f115156118a557600080fd5b5050506040518051905015156118ba57600080fd5b5050565b6118c882826119c5565b600860008373ffffffffffffffffffffffffffffffffffffffff1673ffffffffffffffffffffffffffffffffffffffff1681526020019081526020016000205461195a82600760008673ffffffffffffffffffffffffffffffffffffffff1673ffffffffffffffffffffffffffffffffffffffff1681526020019081526020016000205461160690919063ffffffff16565b1115151561196757600080fd5b5050565b6000806000841415611980576000915061199f565b828402905082848281151561199157fe5b0414151561199b57fe5b8091505b5092915050565b60008082848115156119b457fe5b0490508091505092915050565b5050565b60045442101580156119d957506005544211155b15156119e457600080fd5b6119ee82826119f2565b5050565b600073ffffffffffffffffffffffffffffffffffffffff168273ffffffffffffffffffffffffffffffffffffffff1614151515611a2e57600080fd5b60008114151515611a3e57600080fd5b50505600a165627a7a723058205dd2cded0806b776da69da8b8b9140573de448869957ddb19c317c494431e7ce00296060604052336000806101000a81548173ffffffffffffffffffffffffffffffffffffffff021916908373ffffffffffffffffffffffffffffffffffffffff160217905550336000806101000a81548173ffffffffffffffffffffffffffffffffffffffff021916908373ffffffffffffffffffffffffffffffffffffffff1602179055506000809054906101000a900473ffffffffffffffffffffffffffffffffffffffff16600160006101000a81548173ffffffffffffffffffffffffffffffffffffffff021916908373ffffffffffffffffffffffffffffffffffffffff160217905550610990806100f56000396000f30060606040526004361061008e576000357c0100000000000000000000000000000000000000000000000000000000900463ffffffff168063057413f7146100935780630e8ca718146100e05780632a8093cc146101195780635b8943ff146101925780638da5cb5b146101ea578063bc019eed1461023f578063e66f53b7146102b8578063f2fde38b1461030d575b600080fd5b341561009e57600080fd5b6100de600480803573ffffffffffffffffffffffffffffffffffffffff169060200190919080359060200190820180359060200191909192905050610346565b005b34156100eb57600080fd5b610117600480803573ffffffffffffffffffffffffffffffffffffffff1690602001909190505061046f565b005b341561012457600080fd5b610150600480803573ffffffffffffffffffffffffffffffffffffffff169060200190919050506105c6565b604051808273ffffffffffffffffffffffffffffffffffffffff1673ffffffffffffffffffffffffffffffffffffffff16815260200191505060405180910390f35b341561019d57600080fd5b6101e8600480803573ffffffffffffffffffffffffffffffffffffffff1690602001909190803573ffffffffffffffffffffffffffffffffffffffff169060200190919050506105f9565b005b34156101f557600080fd5b6101fd61075b565b604051808273ffffffffffffffffffffffffffffffffffffffff1673ffffffffffffffffffffffffffffffffffffffff16815260200191505060405180910390f35b341561024a57600080fd5b610276600480803573ffffffffffffffffffffffffffffffffffffffff16906020019091905050610780565b604051808273ffffffffffffffffffffffffffffffffffffffff1673ffffffffffffffffffffffffffffffffffffffff16815260200191505060405180910390f35b34156102c357600080fd5b6102cb6107e9565b604051808273ffffffffffffffffffffffffffffffffffffffff1673ffffffffffffffffffffffffffffffffffffffff16815260200191505060405180910390f35b341561031857600080fd5b610344600480803573ffffffffffffffffffffffffffffffffffffffff1690602001909190505061080f565b005b6000600160009054906101000a900473ffffffffffffffffffffffffffffffffffffffff1673ffffffffffffffffffffffffffffffffffffffff163373ffffffffffffffffffffffffffffffffffffffff161415156103a457600080fd5b600090505b8282905081101561046957836002600085858581811015156103c757fe5b9050602002013573ffffffffffffffffffffffffffffffffffffffff1673ffffffffffffffffffffffffffffffffffffffff1673ffffffffffffffffffffffffffffffffffffffff16815260200190815260200160002060006101000a81548173ffffffffffffffffffffffffffffffffffffffff021916908373ffffffffffffffffffffffffffffffffffffffff16021790555080806001019150506103a9565b50505050565b6000809054906101000a900473ffffffffffffffffffffffffffffffffffffffff1673ffffffffffffffffffffffffffffffffffffffff163373ffffffffffffffffffffffffffffffffffffffff161415156104ca57600080fd5b600073ffffffffffffffffffffffffffffffffffffffff168173ffffffffffffffffffffffffffffffffffffffff161415151561050657600080fd5b8073ffffffffffffffffffffffffffffffffffffffff16600160009054906101000a900473ffffffffffffffffffffffffffffffffffffffff1673ffffffffffffffffffffffffffffffffffffffff167fa9758fcc89db640734d17c365db1788692826f95ab766ac07692cdcfa4589c1060405160405180910390a380600160006101000a81548173ffffffffffffffffffffffffffffffffffffffff021916908373ffffffffffffffffffffffffffffffffffffffff16021790555050565b60026020528060005260406000206000915054906101000a900473ffffffffffffffffffffffffffffffffffffffff1681565b600160009054906101000a900473ffffffffffffffffffffffffffffffffffffffff1673ffffffffffffffffffffffffffffffffffffffff163373ffffffffffffffffffffffffffffffffffffffff1614151561065557600080fd5b60008173ffffffffffffffffffffffffffffffffffffffff1614158015610693575060008273ffffffffffffffffffffffffffffffffffffffff1614155b151561069e57600080fd5b8073ffffffffffffffffffffffffffffffffffffffff168273ffffffffffffffffffffffffffffffffffffffff16141515156106d957600080fd5b81600260008373ffffffffffffffffffffffffffffffffffffffff1673ffffffffffffffffffffffffffffffffffffffff16815260200190815260200160002060006101000a81548173ffffffffffffffffffffffffffffffffffffffff021916908373ffffffffffffffffffffffffffffffffffffffff1602179055505050565b6000809054906101000a900473ffffffffffffffffffffffffffffffffffffffff1681565b6000600260008373ffffffffffffffffffffffffffffffffffffffff1673ffffffffffffffffffffffffffffffffffffffff16815260200190815260200160002060009054906101000a900473ffffffffffffffffffffffffffffffffffffffff169050919050565b600160009054906101000a900473ffffffffffffffffffffffffffffffffffffffff1681565b6000809054906101000a900473ffffffffffffffffffffffffffffffffffffffff1673ffffffffffffffffffffffffffffffffffffffff163373ffffffffffffffffffffffffffffffffffffffff1614151561086a57600080fd5b600073ffffffffffffffffffffffffffffffffffffffff168173ffffffffffffffffffffffffffffffffffffffff16141515156108a657600080fd5b8073ffffffffffffffffffffffffffffffffffffffff166000809054906101000a900473ffffffffffffffffffffffffffffffffffffffff1673ffffffffffffffffffffffffffffffffffffffff167f8be0079c531659141344cd1fd0a4f28419497f9722a3daafe3b4186f6b6457e060405160405180910390a3806000806101000a81548173ffffffffffffffffffffffffffffffffffffffff021916908373ffffffffffffffffffffffffffffffffffffffff160217905550505600a165627a7a72305820518b23953af1fd4fd7a577d016986b4c402c01dea264a1b48864c096923097970029",
  "source": "pragma solidity ^0.4.17;\r\nimport \"./QuantToken.sol\";\r\nimport \"./AffiliateList.sol\";\r\n\r\nimport \"zeppelin-solidity/contracts/crowdsale/validation/IndividuallyCappedCrowdsale.sol\";\r\nimport \"zeppelin-solidity/contracts/crowdsale/validation/TimedCrowdsale.sol\";\r\nimport \"zeppelin-solidity/contracts/crowdsale/emission/MintedCrowdsale.sol\";\r\nimport \"zeppelin-solidity/contracts/crowdsale/distribution/PostDeliveryCrowdsale.sol\";\r\n\r\n/**\r\n * @title SampleCrowdsale\r\n * @dev General crowd sale of the QUANT Token, following integrations is used:\r\n *      - IndividuallyCappedCrowdsale: used for whitelisting (individually capped), if not present you cannot buy any tokens\r\n *      - TimedCrowdsale: CrowdSale will last a specific length\r\n *      - MintedCrowdsale: Tokens will be minted\r\n *      - PostDeliveryCrowdsale: Tokens will be distributed after crowdsale\r\n *      - AffiliateList: affiliate distribution and registration\r\n */\r\ncontract QuantTokenCrowdSale is TimedCrowdsale, IndividuallyCappedCrowdsale, MintedCrowdsale, PostDeliveryCrowdsale, AffiliateList {\r\n\r\n    // Current public soft cap\r\n    uint256 public SoftCap;\r\n\r\n    // Current public hard cap\r\n    uint256 public HardCap;\r\n\r\n    // Current public presale cap\r\n    uint256 public PresaleCap;\r\n\r\n    // Current public soft cap-rate\r\n    uint256 public SoftCapRate;\r\n\r\n    // Current public hard cap-rate\r\n    uint256 public HardCapRate;\r\n\r\n    // Current public presale cap-rate\r\n    uint256 public PresaleCapRate;\r\n\r\n    //Company reserve destionation address\r\n    address CompanyReserve;\r\n\r\n    //Mining pool destination address\r\n    address MiningPool;\r\n\r\n    //ICO bounty destination address\r\n    address ICOBounty;\r\n\r\n    //Github bounty destination address\r\n    address GithubBounty; \r\n\r\n    //Company Percentage\r\n    uint256 CompanyPercentage;\r\n\r\n    //MiningPool Percentage\r\n    uint256 MiningPoolPercentage;\r\n\r\n    //ICOBounty Percentage\r\n    uint256 ICOBountyPercentage;\r\n\r\n    //GithubBounty Percentage\r\n    uint256 GithubBountyPercentage;\r\n\r\n    //Affiliate registry\r\n    AffiliateList public affiliateList;\r\n\r\n    //Pre-Sale check\r\n    bool IsPreSaleOpen;\r\n\r\n  /**\r\n   * @dev The QuantTokenCrowdSale constructor sets the initial crowdsale parameters.\r\n   */\r\n  function QuantTokenCrowdSale(\r\n    uint256 _openingTime,\r\n    uint256 _closingTime,\r\n    uint256 _softcaprate,\r\n    uint256 _hardcaprate,\r\n    uint256 _presalerate,\r\n    address _wallet,\r\n    address _companyreserve,\r\n    address _miningpool,\r\n    address _icobounty,\r\n    address _githubbounty,\r\n    uint256 _cap,\r\n    uint256 _softcaperc,\r\n    uint256 _presalecap,\r\n    QuantToken _token\r\n  )\r\n    public\r\n    Crowdsale(_softcaprate, _wallet, _token)\r\n    TimedCrowdsale(_openingTime, _closingTime)\r\n  {\r\n      //Check input\r\n      require(_cap > 0);\r\n      require(_openingTime > 0);\r\n      require(_closingTime > 0);\r\n      require(_softcaprate > 0);\r\n      require(_softcaprate > _hardcaprate);\r\n      require(_softcaprate > _hardcaprate);\r\n      require(_wallet != address(0));\r\n      require(_companyreserve != address(0));\r\n      require(_miningpool != address(0));\r\n      require(_icobounty != address(0));\r\n      require(_githubbounty != address(0));\r\n      require(_presalecap > 0);\r\n      require(_presalerate > 0);\r\n\r\n      //Set items\r\n      HardCap = _cap;\r\n      SoftCap = HardCap.mul(_softcaperc);\r\n      PresaleCap = _presalecap;\r\n      SoftCapRate = _softcaprate;\r\n      HardCapRate = _hardcaprate;\r\n      PresaleCapRate = _presalerate;\r\n      affiliateList = new AffiliateList();\r\n  }\r\n\r\n  /**\r\n   * @dev Override to extend the way in which ether is converted to tokens.\r\n   * @param _weiAmount Value in wei to be converted into tokens\r\n   * @return Number of tokens that can be purchased with the specified _weiAmount\r\n   */\r\n  function _getTokenAmount(uint256 _weiAmount) internal view returns (uint256) {\r\n    \r\n    //Check if soft-cap has been hit\r\n    uint256 _rate = SoftCapRate;\r\n    if(weiRaised > SoftCap)\r\n        _rate = HardCapRate;\r\n\r\n    //Check if additional affiliate amounts should be applied\r\n    //if(affiliateList.getAffiliate(0))\r\n    if(1==1)\r\n        _rate = _rate.mul(110).div(100);\r\n\r\n    //Return total amount, based on current rate\r\n    return _weiAmount.mul(_rate);\r\n  }\r\n\r\n    /**\r\n   * @dev Executed when a purchase has been validated and is ready to be executed. Not necessarily emits/sends tokens.\r\n   * @param _beneficiary Address receiving the tokens\r\n   * @param _tokenAmount Number of tokens to be purchased\r\n   */\r\n  function _processPurchase(address _beneficiary, uint256 _tokenAmount) internal {\r\n      //Here we specify who gets what amount of tokens (Buyer/_beneficiary 30%, Company Address 50% etc...) + affiliate\r\n    balances[_beneficiary] = balances[_beneficiary].add(_tokenAmount);\r\n  }\r\n\r\n  /**\r\n   * @dev Extend parent behavior requiring to be within contributing period\r\n   * @param _beneficiary Token purchaser\r\n   * @param _weiAmount Amount of wei contributed\r\n   */\r\n  function _preValidatePurchase(address _beneficiary, uint256 _weiAmount) internal {\r\n    if(IsPreSaleOpen == false)\r\n      super._preValidatePurchase(_beneficiary, _weiAmount);\r\n    else\r\n\t  //TODO: als check if current transaction will change this\r\n      IsPreSaleOpen = weiRaised <= PresaleCap;\r\n  }\r\n\r\n  /**\r\n   * @dev Open the presale on any given moment\r\n   */\r\n  function openPresale() external onlyOwner{\r\n    IsPreSaleOpen = true;\r\n  }\r\n\r\n  /**\r\n   * @dev Close the presale manually\r\n   */\r\n  function closePresale() external onlyOwner{\r\n    IsPreSaleOpen = false;\r\n  }\r\n}",
  "sourcePath": "C:\\Users\\MennoHamburg\\Documents\\contracts\\contracts\\QuantTokenCrowdSale.sol",
  "compiler": {
    "name": "solc",
    "version": "0.4.18+commit.9cf6e910.Emscripten.clang"
  },
  "schemaVersion": "1.0.1",
  "updatedAt": "2018-05-14T15:18:02.325Z"
}